{
  "contractName": "Immortal",
  "abi": [
    {
      "anonymous": false,
      "inputs": [
        {
          "indexed": true,
          "internalType": "address",
          "name": "from",
          "type": "address"
        },
        {
          "indexed": false,
          "internalType": "string",
          "name": "key",
          "type": "string"
        },
        {
          "indexed": false,
          "internalType": "string",
          "name": "value",
          "type": "string"
        }
      ],
      "name": "putEvent",
      "type": "event"
    },
    {
      "anonymous": false,
      "inputs": [
        {
          "indexed": true,
          "internalType": "address",
          "name": "from",
          "type": "address"
        },
        {
          "indexed": false,
          "internalType": "string",
          "name": "key",
          "type": "string"
        }
      ],
      "name": "removeEvent",
      "type": "event"
    },
    {
      "constant": false,
      "inputs": [
        {
          "internalType": "string",
          "name": "key",
          "type": "string"
        },
        {
          "internalType": "string",
          "name": "value",
          "type": "string"
        }
      ],
      "name": "put",
      "outputs": [],
      "payable": true,
      "stateMutability": "payable",
      "type": "function"
    },
    {
      "constant": false,
      "inputs": [
        {
          "internalType": "string",
          "name": "key",
          "type": "string"
        }
      ],
      "name": "remove",
      "outputs": [],
      "payable": true,
      "stateMutability": "payable",
      "type": "function"
    },
    {
      "constant": true,
      "inputs": [
        {
          "internalType": "address",
          "name": "me",
          "type": "address"
        },
        {
          "internalType": "string",
          "name": "key",
          "type": "string"
        }
      ],
      "name": "getData",
      "outputs": [
        {
          "internalType": "string",
          "name": "",
          "type": "string"
        }
      ],
      "payable": false,
      "stateMutability": "view",
      "type": "function"
    }
  ],
  "bytecode": "0x608060405234801561001057600080fd5b50610956806100206000396000f3fe6080604052600436106100345760003560e01c80633bf58dba14610039578063425080c81461019a57806380599e4b146102ec575b600080fd5b34801561004557600080fd5b5061011f6004803603604081101561005c57600080fd5b81019080803573ffffffffffffffffffffffffffffffffffffffff1690602001909291908035906020019064010000000081111561009957600080fd5b8201836020820111156100ab57600080fd5b803590602001918460018302840111640100000000831117156100cd57600080fd5b91908080601f016020809104026020016040519081016040528093929190818152602001838380828437600081840152601f19601f8201169050808301925050505050505091929192905050506103a7565b6040518080602001828103825283818151815260200191508051906020019080838360005b8381101561015f578082015181840152602081019050610144565b50505050905090810190601f16801561018c5780820380516001836020036101000a031916815260200191505b509250505060405180910390f35b6102ea600480360360408110156101b057600080fd5b81019080803590602001906401000000008111156101cd57600080fd5b8201836020820111156101df57600080fd5b8035906020019184600183028401116401000000008311171561020157600080fd5b91908080601f016020809104026020016040519081016040528093929190818152602001838380828437600081840152601f19601f8201169050808301925050505050505091929192908035906020019064010000000081111561026457600080fd5b82018360208201111561027657600080fd5b8035906020019184600183028401116401000000008311171561029857600080fd5b91908080601f016020809104026020016040519081016040528093929190818152602001838380828437600081840152601f19601f8201169050808301925050505050505091929192905050506104ef565b005b6103a56004803603602081101561030257600080fd5b810190808035906020019064010000000081111561031f57600080fd5b82018360208201111561033157600080fd5b8035906020019184600183028401116401000000008311171561035357600080fd5b91908080601f016020809104026020016040519081016040528093929190818152602001838380828437600081840152601f19601f8201169050808301925050505050505091929192905050506106cd565b005b60606000808473ffffffffffffffffffffffffffffffffffffffff1673ffffffffffffffffffffffffffffffffffffffff168152602001908152602001600020826040518082805190602001908083835b6020831061041b57805182526020820191506020810190506020830392506103f8565b6001836020036101000a03801982511681845116808217855250505050505090500191505090815260200160405180910390208054600181600116156101000203166002900480601f0160208091040260200160405190810160405280929190818152602001828054600181600116156101000203166002900480156104e25780601f106104b7576101008083540402835291602001916104e2565b820191906000526020600020905b8154815290600101906020018083116104c557829003601f168201915b5050505050905092915050565b806000803373ffffffffffffffffffffffffffffffffffffffff1673ffffffffffffffffffffffffffffffffffffffff168152602001908152602001600020836040518082805190602001908083835b60208310610562578051825260208201915060208101905060208303925061053f565b6001836020036101000a038019825116818451168082178552505050505050905001915050908152602001604051809103902090805190602001906105a8929190610834565b503373ffffffffffffffffffffffffffffffffffffffff167ff1ab284d5fcd5d6d9bb63b7508b73fae4704e970da3f81cc42d24bc518c2a78e8383604051808060200180602001838103835285818151815260200191508051906020019080838360005b8381101561062757808201518184015260208101905061060c565b50505050905090810190601f1680156106545780820380516001836020036101000a031916815260200191505b50838103825284818151815260200191508051906020019080838360005b8381101561068d578082015181840152602081019050610672565b50505050905090810190601f1680156106ba5780820380516001836020036101000a031916815260200191505b5094505050505060405180910390a25050565b6000803373ffffffffffffffffffffffffffffffffffffffff1673ffffffffffffffffffffffffffffffffffffffff168152602001908152602001600020816040518082805190602001908083835b6020831061073f578051825260208201915060208101905060208303925061071c565b6001836020036101000a0380198251168184511680821785525050505050509050019150509081526020016040518091039020600061077e91906108b4565b3373ffffffffffffffffffffffffffffffffffffffff167f2eb874ea9cea9652e2f0772e7c688b1e1a13e55dd4d4cd94df9c9d2e55dddf61826040518080602001828103825283818151815260200191508051906020019080838360005b838110156107f75780820151818401526020810190506107dc565b50505050905090810190601f1680156108245780820380516001836020036101000a031916815260200191505b509250505060405180910390a250565b828054600181600116156101000203166002900490600052602060002090601f016020900481019282601f1061087557805160ff19168380011785556108a3565b828001600101855582156108a3579182015b828111156108a2578251825591602001919060010190610887565b5b5090506108b091906108fc565b5090565b50805460018160011615610100020316600290046000825580601f106108da57506108f9565b601f0160209004906000526020600020908101906108f891906108fc565b5b50565b61091e91905b8082111561091a576000816000905550600101610902565b5090565b9056fea265627a7a72315820a91030eb3429632ce64d2d73b516f5465a96c9dfee23dc5cf717e8b3ad8e30f864736f6c63430005100032",
  "source": "// SPDX-License-Identifier: GPL-3.0\r\npragma solidity >=0.4.16 <0.9.0;\r\n\r\ncontract Immortal {\r\n    // Fired when data is put\r\n    event putEvent(address indexed from, string key, string value);\r\n\r\n    // Fired when data is removed\r\n    event removeEvent(address indexed from, string key);\r\n\r\n    // Maps users to their data (string => string)\r\n    mapping (address => mapping(string => string)) data;\r\n\r\n    // Allows any user to write to their data\r\n    function put(string memory key, string memory value) public payable {\r\n        data[msg.sender][key] = value;\r\n        emit putEvent(msg.sender, key, value);\r\n    }\r\n\r\n    // Allows any user to delete a key from their data\r\n    function remove(string memory key) public payable {\r\n        delete data[msg.sender][key];\r\n        emit removeEvent(msg.sender, key);\r\n    }\r\n\r\n    // Gets the data at a given user/key\r\n    function getData(address me, string memory key) public view returns (string memory) {\r\n        return data[me][key];\r\n    }\r\n}",
  "sourcePath": "C:\\Users\\cyberpwn\\Documents\\development\\workspace\\Immortal\\contracts\\Immortal.sol",
  "compiler": {
    "name": "solc",
    "version": "0.5.16+commit.9c3226ce.Emscripten.clang"
  },
  "schemaVersion": "3.4.3",
  "updatedAt": "2021-10-21T10:02:48.181Z",
  "networkType": "ethereum",
  "devdoc": {
    "methods": {}
  },
  "userdoc": {
    "methods": {}
  }
}