{
  "contractName": "Immortal",
  "abi": [
    {
      "inputs": [],
      "payable": false,
      "stateMutability": "nonpayable",
      "type": "constructor"
    },
    {
      "anonymous": false,
      "inputs": [
        {
          "indexed": true,
          "internalType": "address",
          "name": "from",
          "type": "address"
        },
        {
          "indexed": false,
          "internalType": "string",
          "name": "key",
          "type": "string"
        },
        {
          "indexed": false,
          "internalType": "string",
          "name": "value",
          "type": "string"
        }
      ],
      "name": "putEvent",
      "type": "event"
    },
    {
      "anonymous": false,
      "inputs": [
        {
          "indexed": true,
          "internalType": "address",
          "name": "from",
          "type": "address"
        },
        {
          "indexed": false,
          "internalType": "string",
          "name": "key",
          "type": "string"
        }
      ],
      "name": "removeEvent",
      "type": "event"
    },
    {
      "constant": true,
      "inputs": [],
      "name": "fee",
      "outputs": [
        {
          "internalType": "uint256",
          "name": "",
          "type": "uint256"
        }
      ],
      "payable": false,
      "stateMutability": "view",
      "type": "function"
    },
    {
      "constant": false,
      "inputs": [
        {
          "internalType": "uint256",
          "name": "newFeeWei",
          "type": "uint256"
        }
      ],
      "name": "adminSetFeeWei",
      "outputs": [],
      "payable": true,
      "stateMutability": "payable",
      "type": "function"
    },
    {
      "constant": false,
      "inputs": [],
      "name": "adminWithdraw",
      "outputs": [],
      "payable": false,
      "stateMutability": "nonpayable",
      "type": "function"
    },
    {
      "constant": false,
      "inputs": [
        {
          "internalType": "string",
          "name": "key",
          "type": "string"
        },
        {
          "internalType": "string",
          "name": "value",
          "type": "string"
        }
      ],
      "name": "put",
      "outputs": [],
      "payable": true,
      "stateMutability": "payable",
      "type": "function"
    },
    {
      "constant": false,
      "inputs": [
        {
          "internalType": "string",
          "name": "key",
          "type": "string"
        }
      ],
      "name": "remove",
      "outputs": [],
      "payable": true,
      "stateMutability": "payable",
      "type": "function"
    },
    {
      "constant": true,
      "inputs": [
        {
          "internalType": "string",
          "name": "key",
          "type": "string"
        }
      ],
      "name": "get",
      "outputs": [
        {
          "internalType": "string",
          "name": "",
          "type": "string"
        }
      ],
      "payable": false,
      "stateMutability": "view",
      "type": "function"
    }
  ],
  "bytecode": "0x6080604052600060025534801561001557600080fd5b5033600160006101000a81548173ffffffffffffffffffffffffffffffffffffffff021916908373ffffffffffffffffffffffffffffffffffffffff160217905550610c75806100666000396000f3fe6080604052600436106100555760003560e01c8063425080c81461005a578063693ec85e146101ac57806380599e4b146102ed578063ae2a13bf146103a8578063ddca3f43146103d6578063f18d20be14610401575b600080fd5b6101aa6004803603604081101561007057600080fd5b810190808035906020019064010000000081111561008d57600080fd5b82018360208201111561009f57600080fd5b803590602001918460018302840111640100000000831117156100c157600080fd5b91908080601f016020809104026020016040519081016040528093929190818152602001838380828437600081840152601f19601f8201169050808301925050505050505091929192908035906020019064010000000081111561012457600080fd5b82018360208201111561013657600080fd5b8035906020019184600183028401116401000000008311171561015857600080fd5b91908080601f016020809104026020016040519081016040528093929190818152602001838380828437600081840152601f19601f820116905080830192505050505050509192919290505050610418565b005b3480156101b857600080fd5b50610272600480360360208110156101cf57600080fd5b81019080803590602001906401000000008111156101ec57600080fd5b8201836020820111156101fe57600080fd5b8035906020019184600183028401116401000000008311171561022057600080fd5b91908080601f016020809104026020016040519081016040528093929190818152602001838380828437600081840152601f19601f820116905080830192505050505050509192919290505050610651565b6040518080602001828103825283818151815260200191508051906020019080838360005b838110156102b2578082015181840152602081019050610297565b50505050905090810190601f1680156102df5780820380516001836020036101000a031916815260200191505b509250505060405180910390f35b6103a66004803603602081101561030357600080fd5b810190808035906020019064010000000081111561032057600080fd5b82018360208201111561033257600080fd5b8035906020019184600183028401116401000000008311171561035457600080fd5b91908080601f016020809104026020016040519081016040528093929190818152602001838380828437600081840152601f19601f820116905080830192505050505050509192919290505050610798565b005b6103d4600480360360208110156103be57600080fd5b810190808035906020019092919050505061095a565b005b3480156103e257600080fd5b506103eb610a0a565b6040518082815260200191505060405180910390f35b34801561040d57600080fd5b50610416610a10565b005b600254341015610473576040517f08c379a000000000000000000000000000000000000000000000000000000000815260040180806020018281038252602a815260200180610c17602a913960400191505060405180910390fd5b806000803373ffffffffffffffffffffffffffffffffffffffff1673ffffffffffffffffffffffffffffffffffffffff168152602001908152602001600020836040518082805190602001908083835b602083106104e657805182526020820191506020810190506020830392506104c3565b6001836020036101000a0380198251168184511680821785525050505050509050019150509081526020016040518091039020908051906020019061052c929190610aff565b503373ffffffffffffffffffffffffffffffffffffffff167ff1ab284d5fcd5d6d9bb63b7508b73fae4704e970da3f81cc42d24bc518c2a78e8383604051808060200180602001838103835285818151815260200191508051906020019080838360005b838110156105ab578082015181840152602081019050610590565b50505050905090810190601f1680156105d85780820380516001836020036101000a031916815260200191505b50838103825284818151815260200191508051906020019080838360005b838110156106115780820151818401526020810190506105f6565b50505050905090810190601f16801561063e5780820380516001836020036101000a031916815260200191505b5094505050505060405180910390a25050565b60606000803373ffffffffffffffffffffffffffffffffffffffff1673ffffffffffffffffffffffffffffffffffffffff168152602001908152602001600020826040518082805190602001908083835b602083106106c557805182526020820191506020810190506020830392506106a2565b6001836020036101000a03801982511681845116808217855250505050505090500191505090815260200160405180910390208054600181600116156101000203166002900480601f01602080910402602001604051908101604052809291908181526020018280546001816001161561010002031660029004801561078c5780601f106107615761010080835404028352916020019161078c565b820191906000526020600020905b81548152906001019060200180831161076f57829003601f168201915b50505050509050919050565b6002543410156107f3576040517f08c379a000000000000000000000000000000000000000000000000000000000815260040180806020018281038252602a815260200180610c17602a913960400191505060405180910390fd5b6000803373ffffffffffffffffffffffffffffffffffffffff1673ffffffffffffffffffffffffffffffffffffffff168152602001908152602001600020816040518082805190602001908083835b602083106108655780518252602082019150602081019050602083039250610842565b6001836020036101000a038019825116818451168082178552505050505050905001915050908152602001604051809103902060006108a49190610b7f565b3373ffffffffffffffffffffffffffffffffffffffff167f2eb874ea9cea9652e2f0772e7c688b1e1a13e55dd4d4cd94df9c9d2e55dddf61826040518080602001828103825283818151815260200191508051906020019080838360005b8381101561091d578082015181840152602081019050610902565b50505050905090810190601f16801561094a5780820380516001836020036101000a031916815260200191505b509250505060405180910390a250565b600160009054906101000a900473ffffffffffffffffffffffffffffffffffffffff1673ffffffffffffffffffffffffffffffffffffffff163373ffffffffffffffffffffffffffffffffffffffff1614610a00576040517f08c379a000000000000000000000000000000000000000000000000000000000815260040180806020018281038252602a815260200180610bed602a913960400191505060405180910390fd5b8060028190555050565b60025481565b600160009054906101000a900473ffffffffffffffffffffffffffffffffffffffff1673ffffffffffffffffffffffffffffffffffffffff163373ffffffffffffffffffffffffffffffffffffffff1614610ab6576040517f08c379a000000000000000000000000000000000000000000000000000000000815260040180806020018281038252602a815260200180610bed602a913960400191505060405180910390fd5b3373ffffffffffffffffffffffffffffffffffffffff166108fc479081150290604051600060405180830381858888f19350505050158015610afc573d6000803e3d6000fd5b50565b828054600181600116156101000203166002900490600052602060002090601f016020900481019282601f10610b4057805160ff1916838001178555610b6e565b82800160010185558215610b6e579182015b82811115610b6d578251825591602001919060010190610b52565b5b509050610b7b9190610bc7565b5090565b50805460018160011615610100020316600290046000825580601f10610ba55750610bc4565b601f016020900490600052602060002090810190610bc39190610bc7565b5b50565b610be991905b80821115610be5576000816000905550600101610bcd565b5090565b9056fe596f7520617265206e6f7420746865206f776e65722e20596f752063616e6e6f7420646f20746869732e56616c7565206d75737420636f6e7461696e206174206c65617374207468652066656520696e20574549a265627a7a723158200a6b2a187bfd68db43da0632bb100eeaee63b9eb964cc5df1413c841ca07edce64736f6c63430005100032",
  "source": "// SPDX-License-Identifier: GPL-3.0\r\npragma solidity >=0.4.16 <0.9.0;\r\n\r\ncontract Immortal {\r\n    event putEvent(address indexed from, string key, string value);\r\n    event removeEvent(address indexed from, string key);\r\n\r\n    mapping (address => mapping(string => string)) data;\r\n    address owner;\r\n    uint public fee = 0;\r\n\r\n    constructor() public { owner = msg.sender;}\r\n\r\n    modifier paid() { require(msg.value >= fee, \"Value must contain at least the fee in WEI\"); _;}\r\n    modifier administrative() {require(msg.sender == owner, \"You are not the owner. You cannot do this.\");_;}\r\n\r\n    function adminSetFeeWei(uint newFeeWei) public payable administrative {\r\n        fee = newFeeWei;\r\n    }\r\n\r\n    function adminWithdraw() public administrative {\r\n        msg.sender.transfer(address(this).balance);\r\n    }\r\n\r\n    function put(string memory key, string memory value) public payable paid {\r\n        data[msg.sender][key] = value;\r\n        emit putEvent(msg.sender, key, value);\r\n    }\r\n\r\n    function remove(string memory key) public payable paid {\r\n        delete data[msg.sender][key];\r\n        emit removeEvent(msg.sender, key);\r\n    }\r\n\r\n    function get(string memory key) public view returns (string memory) {\r\n        return data[msg.sender][key];\r\n    }\r\n}",
  "sourcePath": "C:\\Users\\cyberpwn\\Documents\\development\\workspace\\Immortal\\contracts\\Immortal.sol",
  "compiler": {
    "name": "solc",
    "version": "0.5.16+commit.9c3226ce.Emscripten.clang"
  },
  "schemaVersion": "3.4.3",
  "updatedAt": "2021-11-05T15:46:01.350Z",
  "networkType": "ethereum",
  "devdoc": {
    "methods": {}
  },
  "userdoc": {
    "methods": {}
  }
}